:100000000C9454000C9469000C9469000C946900E1
:100010000C9469000C9469000C9469000C946900BC
:100020000C9469000C9469000C9469000C946900AC
:100030000C9469000C9469000C9469000C9469009C
:100040000C9469000C9469000C9469000C9469008C
:100050000C9469000C9469000C9469000C9469007C
:100060000C9469000C946900D400D200E100E10016
:10007000E100E100D600D800DA00D600D800DC00AC
:10008000DE00E000D400D200DA00E100E100E1008F
:10009000E100E100DC00DE00E000D400D200DA0084
:1000A000D600DC00DE00E00011241FBECFEFD8E058
:1000B000DEBFCDBF11E0A0E0B1E0ECE1F2E002C0B4
:1000C00005900D92A230B107D9F70E94E2000C947E
:1000D0000C010C940000873051F1883070F48430AA
:1000E00001F1853028F48230D1F0833069F515C0F4
:1000F0008530C9F0863041F518C08A30F1F08B3078
:1001000028F48830B1F08930F9F415C08C30C9F08A
:100110008C30A8F08D30C1F416C080E008958FE1D6
:10012000089581E0089588E0089589E008958AE0BF
:1001300008958BE008958CE008958DE008958EE099
:1001400008958FE0089580E108958B3038F4883069
:1001500090F4823080F0863088F00AC08D3128F427
:10016000863178F4813150F403C0803238F403C012
:1001700025E230E008C02BE230E005C020E030E0AE
:1001800002C028E230E0C9010895E82FF0E0E03233
:10019000F105B8F4EC5CFF4FEE0FFF1F0590F491F2
:1001A000E02D099480E1089588E0089580E40895A1
:1001B00080E8089580E2089581E0089582E008953E
:1001C00084E00895EF92FF920F931F93CF93DF93F4
:1001D000C8ECD0E0549A809100010E946B00082F77
:1001E0000E94A5007C01FC011081802F0E94C500A7
:1001F00080951823F701108388EE93E0FE01319774
:10020000F1F70197D9F75C9A88EE93E0FE013197F8
:0C021000F1F70197D9F7DECFF894FFCF8B
:02021C000400DC
:00000001FF
