:100000000C9434000C943E000C943E000C943E0082
:100010000C943E000C943E000C943E000C943E0068
:100020000C943E000C943E000C943E000C943E0058
:100030000C943E000C943E000C943E000C943E0048
:100040000C943E000C943E000C943E000C943E0038
:100050000C943E000C943E000C943E000C943E0028
:100060000C943E000C943E0011241FBECFEFD8E04C
:10007000DEBFCDBF0E947A000C948E000C9400006D
:10008000873051F1883070F4843001F1853028F4E4
:100090008230D1F0833069F515C08530C9F08630E3
:1000A00041F518C08A30F1F08B3028F48830B1F077
:1000B0008930F9F415C08C30C9F08C30A8F08D303F
:1000C000C1F416C080E008958FE1089581E008959D
:1000D00088E0089589E008958AE008958BE0089506
:1000E0008CE008958DE008958EE008958FE00895E6
:1000F00080E1089528EC30E0549A5C9888EE93E013
:10010000F9013197F1F70197D9F75C9A88EE93E0FE
:10011000F9013197F1F70197D9F7EECFF894FFCFB6
:00000001FF
